{
  "contractName": "StarNotary",
  "abi": [
    {
      "inputs": [],
      "stateMutability": "nonpayable",
      "type": "constructor"
    },
    {
      "anonymous": false,
      "inputs": [
        {
          "indexed": true,
          "internalType": "address",
          "name": "owner",
          "type": "address"
        },
        {
          "indexed": true,
          "internalType": "address",
          "name": "approved",
          "type": "address"
        },
        {
          "indexed": true,
          "internalType": "uint256",
          "name": "tokenId",
          "type": "uint256"
        }
      ],
      "name": "Approval",
      "type": "event"
    },
    {
      "anonymous": false,
      "inputs": [
        {
          "indexed": true,
          "internalType": "address",
          "name": "owner",
          "type": "address"
        },
        {
          "indexed": true,
          "internalType": "address",
          "name": "operator",
          "type": "address"
        },
        {
          "indexed": false,
          "internalType": "bool",
          "name": "approved",
          "type": "bool"
        }
      ],
      "name": "ApprovalForAll",
      "type": "event"
    },
    {
      "anonymous": false,
      "inputs": [
        {
          "indexed": true,
          "internalType": "address",
          "name": "from",
          "type": "address"
        },
        {
          "indexed": true,
          "internalType": "address",
          "name": "to",
          "type": "address"
        },
        {
          "indexed": true,
          "internalType": "uint256",
          "name": "tokenId",
          "type": "uint256"
        }
      ],
      "name": "Transfer",
      "type": "event"
    },
    {
      "inputs": [
        {
          "internalType": "address",
          "name": "to",
          "type": "address"
        },
        {
          "internalType": "uint256",
          "name": "tokenId",
          "type": "uint256"
        }
      ],
      "name": "approve",
      "outputs": [],
      "stateMutability": "nonpayable",
      "type": "function"
    },
    {
      "inputs": [
        {
          "internalType": "address",
          "name": "owner",
          "type": "address"
        }
      ],
      "name": "balanceOf",
      "outputs": [
        {
          "internalType": "uint256",
          "name": "",
          "type": "uint256"
        }
      ],
      "stateMutability": "view",
      "type": "function",
      "constant": true
    },
    {
      "inputs": [],
      "name": "contarctAddress",
      "outputs": [
        {
          "internalType": "address",
          "name": "",
          "type": "address"
        }
      ],
      "stateMutability": "view",
      "type": "function",
      "constant": true
    },
    {
      "inputs": [
        {
          "internalType": "uint256",
          "name": "tokenId",
          "type": "uint256"
        }
      ],
      "name": "getApproved",
      "outputs": [
        {
          "internalType": "address",
          "name": "",
          "type": "address"
        }
      ],
      "stateMutability": "view",
      "type": "function",
      "constant": true
    },
    {
      "inputs": [
        {
          "internalType": "address",
          "name": "owner",
          "type": "address"
        },
        {
          "internalType": "address",
          "name": "operator",
          "type": "address"
        }
      ],
      "name": "isApprovedForAll",
      "outputs": [
        {
          "internalType": "bool",
          "name": "",
          "type": "bool"
        }
      ],
      "stateMutability": "view",
      "type": "function",
      "constant": true
    },
    {
      "inputs": [],
      "name": "name",
      "outputs": [
        {
          "internalType": "string",
          "name": "",
          "type": "string"
        }
      ],
      "stateMutability": "view",
      "type": "function",
      "constant": true
    },
    {
      "inputs": [
        {
          "internalType": "uint256",
          "name": "tokenId",
          "type": "uint256"
        }
      ],
      "name": "ownerOf",
      "outputs": [
        {
          "internalType": "address",
          "name": "",
          "type": "address"
        }
      ],
      "stateMutability": "view",
      "type": "function",
      "constant": true
    },
    {
      "inputs": [
        {
          "internalType": "address",
          "name": "from",
          "type": "address"
        },
        {
          "internalType": "address",
          "name": "to",
          "type": "address"
        },
        {
          "internalType": "uint256",
          "name": "tokenId",
          "type": "uint256"
        }
      ],
      "name": "safeTransferFrom",
      "outputs": [],
      "stateMutability": "nonpayable",
      "type": "function"
    },
    {
      "inputs": [
        {
          "internalType": "address",
          "name": "from",
          "type": "address"
        },
        {
          "internalType": "address",
          "name": "to",
          "type": "address"
        },
        {
          "internalType": "uint256",
          "name": "tokenId",
          "type": "uint256"
        },
        {
          "internalType": "bytes",
          "name": "_data",
          "type": "bytes"
        }
      ],
      "name": "safeTransferFrom",
      "outputs": [],
      "stateMutability": "nonpayable",
      "type": "function"
    },
    {
      "inputs": [
        {
          "internalType": "address",
          "name": "operator",
          "type": "address"
        },
        {
          "internalType": "bool",
          "name": "approved",
          "type": "bool"
        }
      ],
      "name": "setApprovalForAll",
      "outputs": [],
      "stateMutability": "nonpayable",
      "type": "function"
    },
    {
      "inputs": [
        {
          "internalType": "uint256",
          "name": "",
          "type": "uint256"
        }
      ],
      "name": "starsForSale",
      "outputs": [
        {
          "internalType": "uint256",
          "name": "",
          "type": "uint256"
        }
      ],
      "stateMutability": "view",
      "type": "function",
      "constant": true
    },
    {
      "inputs": [
        {
          "internalType": "bytes4",
          "name": "interfaceId",
          "type": "bytes4"
        }
      ],
      "name": "supportsInterface",
      "outputs": [
        {
          "internalType": "bool",
          "name": "",
          "type": "bool"
        }
      ],
      "stateMutability": "view",
      "type": "function",
      "constant": true
    },
    {
      "inputs": [],
      "name": "symbol",
      "outputs": [
        {
          "internalType": "string",
          "name": "",
          "type": "string"
        }
      ],
      "stateMutability": "view",
      "type": "function",
      "constant": true
    },
    {
      "inputs": [
        {
          "internalType": "uint256",
          "name": "",
          "type": "uint256"
        }
      ],
      "name": "tokenIdToStarInfo",
      "outputs": [
        {
          "internalType": "string",
          "name": "name",
          "type": "string"
        }
      ],
      "stateMutability": "view",
      "type": "function",
      "constant": true
    },
    {
      "inputs": [
        {
          "internalType": "uint256",
          "name": "tokenId",
          "type": "uint256"
        }
      ],
      "name": "tokenURI",
      "outputs": [
        {
          "internalType": "string",
          "name": "",
          "type": "string"
        }
      ],
      "stateMutability": "view",
      "type": "function",
      "constant": true
    },
    {
      "inputs": [
        {
          "internalType": "address",
          "name": "from",
          "type": "address"
        },
        {
          "internalType": "address",
          "name": "to",
          "type": "address"
        },
        {
          "internalType": "uint256",
          "name": "tokenId",
          "type": "uint256"
        }
      ],
      "name": "transferFrom",
      "outputs": [],
      "stateMutability": "nonpayable",
      "type": "function"
    },
    {
      "inputs": [
        {
          "internalType": "string",
          "name": "_name",
          "type": "string"
        },
        {
          "internalType": "uint256",
          "name": "_tokenId",
          "type": "uint256"
        }
      ],
      "name": "createStar",
      "outputs": [],
      "stateMutability": "nonpayable",
      "type": "function"
    },
    {
      "inputs": [
        {
          "internalType": "uint256",
          "name": "_tokenId",
          "type": "uint256"
        },
        {
          "internalType": "uint256",
          "name": "_price",
          "type": "uint256"
        }
      ],
      "name": "putStarUpForSale",
      "outputs": [],
      "stateMutability": "nonpayable",
      "type": "function"
    },
    {
      "inputs": [
        {
          "internalType": "uint256",
          "name": "_tokenId",
          "type": "uint256"
        }
      ],
      "name": "buyStar",
      "outputs": [],
      "stateMutability": "payable",
      "type": "function",
      "payable": true
    },
    {
      "inputs": [
        {
          "internalType": "uint256",
          "name": "_tokenId",
          "type": "uint256"
        }
      ],
      "name": "lookUptokenIdToStarInfo",
      "outputs": [
        {
          "internalType": "string",
          "name": "",
          "type": "string"
        },
        {
          "internalType": "address",
          "name": "",
          "type": "address"
        }
      ],
      "stateMutability": "view",
      "type": "function",
      "constant": true
    },
    {
      "inputs": [
        {
          "internalType": "uint256",
          "name": "_tokenId_user1",
          "type": "uint256"
        },
        {
          "internalType": "uint256",
          "name": "_tokenId_user2",
          "type": "uint256"
        }
      ],
      "name": "exchangeStars",
      "outputs": [],
      "stateMutability": "nonpayable",
      "type": "function"
    }
  ],
  "bytecode": "0x60806040523480156200001157600080fd5b506040518060400160405280600881526020017f537461724974656d0000000000000000000000000000000000000000000000008152506040518060400160405280600381526020017f5354520000000000000000000000000000000000000000000000000000000000815250816000908051906020019062000096929190620000f9565b508060019080519060200190620000af929190620000f9565b50505030600660006101000a81548173ffffffffffffffffffffffffffffffffffffffff021916908373ffffffffffffffffffffffffffffffffffffffff1602179055506200020e565b8280546200010790620001a9565b90600052602060002090601f0160209004810192826200012b576000855562000177565b82601f106200014657805160ff191683800117855562000177565b8280016001018555821562000177579182015b828111156200017657825182559160200191906001019062000159565b5b5090506200018691906200018a565b5090565b5b80821115620001a55760008160009055506001016200018b565b5090565b60006002820490506001821680620001c257607f821691505b60208210811415620001d957620001d8620001df565b5b50919050565b7f4e487b7100000000000000000000000000000000000000000000000000000000600052602260045260246000fd5b613304806200021e6000396000f3fe60806040526004361061012a5760003560e01c806342842e0e116100ab5780639697c0a11161006f5780639697c0a114610407578063a22cb46514610430578063b88d4fde14610459578063c87b56dd14610482578063d7830ccb146104bf578063e985e9c5146104fd5761012a565b806342842e0e1461030e5780636352211e1461033757806370a08231146103745780637d65a67d146103b157806395d89b41146103dc5761012a565b806315e0afa5116100f257806315e0afa51461023a5780631967fd981461026357806323b872dd146102a05780632f1c34ef146102c9578063316a4361146102e55761012a565b806301ffc9a71461012f5780630564b1301461016c57806306fdde03146101a9578063081812fc146101d4578063095ea7b314610211575b600080fd5b34801561013b57600080fd5b5061015660048036038101906101519190612187565b61053a565b6040516101639190612686565b60405180910390f35b34801561017857600080fd5b50610193600480360381019061018e919061222d565b61061c565b6040516101a09190612953565b60405180910390f35b3480156101b557600080fd5b506101be610634565b6040516101cb91906126a1565b60405180910390f35b3480156101e057600080fd5b506101fb60048036038101906101f6919061222d565b6106c6565b604051610208919061261f565b60405180910390f35b34801561021d57600080fd5b506102386004803603810190610233919061214b565b61074b565b005b34801561024657600080fd5b50610261600480360381019061025c9190612256565b610863565b005b34801561026f57600080fd5b5061028a6004803603810190610285919061222d565b6109a6565b60405161029791906126a1565b60405180910390f35b3480156102ac57600080fd5b506102c760048036038101906102c29190612045565b610a4c565b005b6102e360048036038101906102de919061222d565b610aac565b005b3480156102f157600080fd5b5061030c60048036038101906103079190612256565b610c3d565b005b34801561031a57600080fd5b5061033560048036038101906103309190612045565b610ccf565b005b34801561034357600080fd5b5061035e6004803603810190610359919061222d565b610cef565b60405161036b919061261f565b60405180910390f35b34801561038057600080fd5b5061039b60048036038101906103969190611fe0565b610da1565b6040516103a89190612953565b60405180910390f35b3480156103bd57600080fd5b506103c6610e59565b6040516103d3919061261f565b60405180910390f35b3480156103e857600080fd5b506103f1610e7f565b6040516103fe91906126a1565b60405180910390f35b34801561041357600080fd5b5061042e600480360381019061042991906121d9565b610f11565b005b34801561043c57600080fd5b506104576004803603810190610452919061210f565b610f67565b005b34801561046557600080fd5b50610480600480360381019061047b9190612094565b6110e8565b005b34801561048e57600080fd5b506104a960048036038101906104a4919061222d565b61114a565b6040516104b691906126a1565b60405180910390f35b3480156104cb57600080fd5b506104e660048036038101906104e1919061222d565b6111f1565b6040516104f49291906126c3565b60405180910390f35b34801561050957600080fd5b50610524600480360381019061051f9190612009565b6112f8565b6040516105319190612686565b60405180910390f35b60007f80ac58cd000000000000000000000000000000000000000000000000000000007bffffffffffffffffffffffffffffffffffffffffffffffffffffffff1916827bffffffffffffffffffffffffffffffffffffffffffffffffffffffff1916148061060557507f5b5e139f000000000000000000000000000000000000000000000000000000007bffffffffffffffffffffffffffffffffffffffffffffffffffffffff1916827bffffffffffffffffffffffffffffffffffffffffffffffffffffffff1916145b8061061557506106148261138c565b5b9050919050565b60086020528060005260406000206000915090505481565b60606000805461064390612ba9565b80601f016020809104026020016040519081016040528092919081815260200182805461066f90612ba9565b80156106bc5780601f10610691576101008083540402835291602001916106bc565b820191906000526020600020905b81548152906001019060200180831161069f57829003601f168201915b5050505050905090565b60006106d1826113f6565b610710576040517f08c379a000000000000000000000000000000000000000000000000000000000815260040161070790612853565b60405180910390fd5b6004600083815260200190815260200160002060009054906101000a900473ffffffffffffffffffffffffffffffffffffffff169050919050565b600061075682610cef565b90508073ffffffffffffffffffffffffffffffffffffffff168373ffffffffffffffffffffffffffffffffffffffff1614156107c7576040517f08c379a00000000000000000000000000000000000000000000000000000000081526004016107be906128d3565b60405180910390fd5b8073ffffffffffffffffffffffffffffffffffffffff166107e6611462565b73ffffffffffffffffffffffffffffffffffffffff16148061081557506108148161080f611462565b6112f8565b5b610854576040517f08c379a000000000000000000000000000000000000000000000000000000000815260040161084b906127d3565b60405180910390fd5b61085e838361146a565b505050565b61086c826113f6565b801561087d575061087c816113f6565b5b6108bc576040517f08c379a00000000000000000000000000000000000000000000000000000000081526004016108b3906126f3565b60405180910390fd5b3373ffffffffffffffffffffffffffffffffffffffff166108dc83610cef565b73ffffffffffffffffffffffffffffffffffffffff16148061093157503373ffffffffffffffffffffffffffffffffffffffff1661091982610cef565b73ffffffffffffffffffffffffffffffffffffffff16145b610970576040517f08c379a000000000000000000000000000000000000000000000000000000000815260040161096790612913565b60405180910390fd5b600061097b83610cef565b9050600061098883610cef565b9050610995828286611523565b6109a0818385611523565b50505050565b60076020528060005260406000206000915090508060000180546109c990612ba9565b80601f01602080910402602001604051908101604052809291908181526020018280546109f590612ba9565b8015610a425780601f10610a1757610100808354040283529160200191610a42565b820191906000526020600020905b815481529060010190602001808311610a2557829003601f168201915b5050505050905081565b610a5d610a57611462565b8261177f565b610a9c576040517f08c379a0000000000000000000000000000000000000000000000000000000008152600401610a9390612933565b60405180910390fd5b610aa7838383611523565b505050565b6000600860008381526020019081526020016000205411610b02576040517f08c379a0000000000000000000000000000000000000000000000000000000008152600401610af9906128f3565b60405180910390fd5b6000600860008381526020019081526020016000205490506000610b2583610cef565b90506000610b328261185d565b905060003390506000610b448261185d565b9050843411610b88576040517f08c379a0000000000000000000000000000000000000000000000000000000008152600401610b7f906128b3565b60405180910390fd5b610b93848388611523565b8273ffffffffffffffffffffffffffffffffffffffff166108fc869081150290604051600060405180830381858888f19350505050158015610bd9573d6000803e3d6000fd5b5084341115610c35578073ffffffffffffffffffffffffffffffffffffffff166108fc8634610c089190612abf565b9081150290604051600060405180830381858888f19350505050158015610c33573d6000803e3d6000fd5b505b505050505050565b3373ffffffffffffffffffffffffffffffffffffffff16610c5d83610cef565b73ffffffffffffffffffffffffffffffffffffffff1614610cb3576040517f08c379a0000000000000000000000000000000000000000000000000000000008152600401610caa90612713565b60405180910390fd5b8060086000848152602001908152602001600020819055505050565b610cea838383604051806020016040528060008152506110e8565b505050565b6000806002600084815260200190815260200160002060009054906101000a900473ffffffffffffffffffffffffffffffffffffffff169050600073ffffffffffffffffffffffffffffffffffffffff168173ffffffffffffffffffffffffffffffffffffffff161415610d98576040517f08c379a0000000000000000000000000000000000000000000000000000000008152600401610d8f90612813565b60405180910390fd5b80915050919050565b60008073ffffffffffffffffffffffffffffffffffffffff168273ffffffffffffffffffffffffffffffffffffffff161415610e12576040517f08c379a0000000000000000000000000000000000000000000000000000000008152600401610e09906127f3565b60405180910390fd5b600360008373ffffffffffffffffffffffffffffffffffffffff1673ffffffffffffffffffffffffffffffffffffffff168152602001908152602001600020549050919050565b600660009054906101000a900473ffffffffffffffffffffffffffffffffffffffff1681565b606060018054610e8e90612ba9565b80601f0160208091040260200160405190810160405280929190818152602001828054610eba90612ba9565b8015610f075780601f10610edc57610100808354040283529160200191610f07565b820191906000526020600020905b815481529060010190602001808311610eea57829003601f168201915b5050505050905090565b6000604051806020016040528084815250905080600760008481526020019081526020016000206000820151816000019080519060200190610f54929190611e04565b50905050610f623383611867565b505050565b610f6f611462565b73ffffffffffffffffffffffffffffffffffffffff168273ffffffffffffffffffffffffffffffffffffffff161415610fdd576040517f08c379a0000000000000000000000000000000000000000000000000000000008152600401610fd490612793565b60405180910390fd5b8060056000610fea611462565b73ffffffffffffffffffffffffffffffffffffffff1673ffffffffffffffffffffffffffffffffffffffff16815260200190815260200160002060008473ffffffffffffffffffffffffffffffffffffffff1673ffffffffffffffffffffffffffffffffffffffff16815260200190815260200160002060006101000a81548160ff0219169083151502179055508173ffffffffffffffffffffffffffffffffffffffff16611097611462565b73ffffffffffffffffffffffffffffffffffffffff167f17307eab39ab6107e8899845ad3d59bd9653f200f220920489ca2b5937696c31836040516110dc9190612686565b60405180910390a35050565b6110f96110f3611462565b8361177f565b611138576040517f08c379a000000000000000000000000000000000000000000000000000000000815260040161112f90612933565b60405180910390fd5b61114484848484611a35565b50505050565b6060611155826113f6565b611194576040517f08c379a000000000000000000000000000000000000000000000000000000000815260040161118b90612893565b60405180910390fd5b600061119e611a91565b905060008151116111be57604051806020016040528060008152506111e9565b806111c884611aa8565b6040516020016111d99291906125fb565b6040516020818303038152906040525b915050919050565b60606000806040518060400160405280601c81526020017f6e6f207374617220657869737420666f72207468697320746f6b656e0000000081525090506000611239856113f6565b156112eb5760076000868152602001908152602001600020600001805461125f90612ba9565b80601f016020809104026020016040519081016040528092919081815260200182805461128b90612ba9565b80156112d85780601f106112ad576101008083540402835291602001916112d8565b820191906000526020600020905b8154815290600101906020018083116112bb57829003601f168201915b505050505091506112e885610cef565b90505b8181935093505050915091565b6000600560008473ffffffffffffffffffffffffffffffffffffffff1673ffffffffffffffffffffffffffffffffffffffff16815260200190815260200160002060008373ffffffffffffffffffffffffffffffffffffffff1673ffffffffffffffffffffffffffffffffffffffff16815260200190815260200160002060009054906101000a900460ff16905092915050565b60007f01ffc9a7000000000000000000000000000000000000000000000000000000007bffffffffffffffffffffffffffffffffffffffffffffffffffffffff1916827bffffffffffffffffffffffffffffffffffffffffffffffffffffffff1916149050919050565b60008073ffffffffffffffffffffffffffffffffffffffff166002600084815260200190815260200160002060009054906101000a900473ffffffffffffffffffffffffffffffffffffffff1673ffffffffffffffffffffffffffffffffffffffff1614159050919050565b600033905090565b816004600083815260200190815260200160002060006101000a81548173ffffffffffffffffffffffffffffffffffffffff021916908373ffffffffffffffffffffffffffffffffffffffff160217905550808273ffffffffffffffffffffffffffffffffffffffff166114dd83610cef565b73ffffffffffffffffffffffffffffffffffffffff167f8c5be1e5ebec7d5bd14f71427d1e84f3dd0314c0f7b2291e5b200ac8c7c3b92560405160405180910390a45050565b8273ffffffffffffffffffffffffffffffffffffffff1661154382610cef565b73ffffffffffffffffffffffffffffffffffffffff1614611599576040517f08c379a000000000000000000000000000000000000000000000000000000000815260040161159090612873565b60405180910390fd5b600073ffffffffffffffffffffffffffffffffffffffff168273ffffffffffffffffffffffffffffffffffffffff161415611609576040517f08c379a000000000000000000000000000000000000000000000000000000000815260040161160090612773565b60405180910390fd5b611614838383611c55565b61161f60008261146a565b6001600360008573ffffffffffffffffffffffffffffffffffffffff1673ffffffffffffffffffffffffffffffffffffffff168152602001908152602001600020600082825461166f9190612abf565b925050819055506001600360008473ffffffffffffffffffffffffffffffffffffffff1673ffffffffffffffffffffffffffffffffffffffff16815260200190815260200160002060008282546116c69190612a38565b92505081905550816002600083815260200190815260200160002060006101000a81548173ffffffffffffffffffffffffffffffffffffffff021916908373ffffffffffffffffffffffffffffffffffffffff160217905550808273ffffffffffffffffffffffffffffffffffffffff168473ffffffffffffffffffffffffffffffffffffffff167fddf252ad1be2c89b69c2b068fc378daa952ba7f163c4a11628f55a4df523b3ef60405160405180910390a4505050565b600061178a826113f6565b6117c9576040517f08c379a00000000000000000000000000000000000000000000000000000000081526004016117c0906127b3565b60405180910390fd5b60006117d483610cef565b90508073ffffffffffffffffffffffffffffffffffffffff168473ffffffffffffffffffffffffffffffffffffffff16148061184357508373ffffffffffffffffffffffffffffffffffffffff1661182b846106c6565b73ffffffffffffffffffffffffffffffffffffffff16145b80611854575061185381856112f8565b5b91505092915050565b6000819050919050565b600073ffffffffffffffffffffffffffffffffffffffff168273ffffffffffffffffffffffffffffffffffffffff1614156118d7576040517f08c379a00000000000000000000000000000000000000000000000000000000081526004016118ce90612833565b60405180910390fd5b6118e0816113f6565b15611920576040517f08c379a000000000000000000000000000000000000000000000000000000000815260040161191790612753565b60405180910390fd5b61192c60008383611c55565b6001600360008473ffffffffffffffffffffffffffffffffffffffff1673ffffffffffffffffffffffffffffffffffffffff168152602001908152602001600020600082825461197c9190612a38565b92505081905550816002600083815260200190815260200160002060006101000a81548173ffffffffffffffffffffffffffffffffffffffff021916908373ffffffffffffffffffffffffffffffffffffffff160217905550808273ffffffffffffffffffffffffffffffffffffffff16600073ffffffffffffffffffffffffffffffffffffffff167fddf252ad1be2c89b69c2b068fc378daa952ba7f163c4a11628f55a4df523b3ef60405160405180910390a45050565b611a40848484611523565b611a4c84848484611c5a565b611a8b576040517f08c379a0000000000000000000000000000000000000000000000000000000008152600401611a8290612733565b60405180910390fd5b50505050565b606060405180602001604052806000815250905090565b60606000821415611af0576040518060400160405280600181526020017f30000000000000000000000000000000000000000000000000000000000000008152509050611c50565b600082905060005b60008214611b22578080611b0b90612c0c565b915050600a82611b1b9190612a8e565b9150611af8565b60008167ffffffffffffffff811115611b64577f4e487b7100000000000000000000000000000000000000000000000000000000600052604160045260246000fd5b6040519080825280601f01601f191660200182016040528015611b965781602001600182028036833780820191505090505b5090505b60008514611c4957600182611baf9190612abf565b9150600a85611bbe9190612c55565b6030611bca9190612a38565b60f81b818381518110611c06577f4e487b7100000000000000000000000000000000000000000000000000000000600052603260045260246000fd5b60200101907effffffffffffffffffffffffffffffffffffffffffffffffffffffffffffff1916908160001a905350600a85611c429190612a8e565b9450611b9a565b8093505050505b919050565b505050565b6000611c7b8473ffffffffffffffffffffffffffffffffffffffff16611df1565b15611de4578373ffffffffffffffffffffffffffffffffffffffff1663150b7a02611ca4611462565b8786866040518563ffffffff1660e01b8152600401611cc6949392919061263a565b602060405180830381600087803b158015611ce057600080fd5b505af1925050508015611d1157506040513d601f19601f82011682018060405250810190611d0e91906121b0565b60015b611d94573d8060008114611d41576040519150601f19603f3d011682016040523d82523d6000602084013e611d46565b606091505b50600081511415611d8c576040517f08c379a0000000000000000000000000000000000000000000000000000000008152600401611d8390612733565b60405180910390fd5b805181602001fd5b63150b7a0260e01b7bffffffffffffffffffffffffffffffffffffffffffffffffffffffff1916817bffffffffffffffffffffffffffffffffffffffffffffffffffffffff191614915050611de9565b600190505b949350505050565b600080823b905060008111915050919050565b828054611e1090612ba9565b90600052602060002090601f016020900481019282611e325760008555611e79565b82601f10611e4b57805160ff1916838001178555611e79565b82800160010185558215611e79579182015b82811115611e78578251825591602001919060010190611e5d565b5b509050611e869190611e8a565b5090565b5b80821115611ea3576000816000905550600101611e8b565b5090565b6000611eba611eb584612993565b61296e565b905082815260208101848484011115611ed257600080fd5b611edd848285612b67565b509392505050565b6000611ef8611ef3846129c4565b61296e565b905082815260208101848484011115611f1057600080fd5b611f1b848285612b67565b509392505050565b600081359050611f3281613272565b92915050565b600081359050611f4781613289565b92915050565b600081359050611f5c816132a0565b92915050565b600081519050611f71816132a0565b92915050565b600082601f830112611f8857600080fd5b8135611f98848260208601611ea7565b91505092915050565b600082601f830112611fb257600080fd5b8135611fc2848260208601611ee5565b91505092915050565b600081359050611fda816132b7565b92915050565b600060208284031215611ff257600080fd5b600061200084828501611f23565b91505092915050565b6000806040838503121561201c57600080fd5b600061202a85828601611f23565b925050602061203b85828601611f23565b9150509250929050565b60008060006060848603121561205a57600080fd5b600061206886828701611f23565b935050602061207986828701611f23565b925050604061208a86828701611fcb565b9150509250925092565b600080600080608085870312156120aa57600080fd5b60006120b887828801611f23565b94505060206120c987828801611f23565b93505060406120da87828801611fcb565b925050606085013567ffffffffffffffff8111156120f757600080fd5b61210387828801611f77565b91505092959194509250565b6000806040838503121561212257600080fd5b600061213085828601611f23565b925050602061214185828601611f38565b9150509250929050565b6000806040838503121561215e57600080fd5b600061216c85828601611f23565b925050602061217d85828601611fcb565b9150509250929050565b60006020828403121561219957600080fd5b60006121a784828501611f4d565b91505092915050565b6000602082840312156121c257600080fd5b60006121d084828501611f62565b91505092915050565b600080604083850312156121ec57600080fd5b600083013567ffffffffffffffff81111561220657600080fd5b61221285828601611fa1565b925050602061222385828601611fcb565b9150509250929050565b60006020828403121561223f57600080fd5b600061224d84828501611fcb565b91505092915050565b6000806040838503121561226957600080fd5b600061227785828601611fcb565b925050602061228885828601611fcb565b9150509250929050565b61229b81612af3565b82525050565b6122aa81612b05565b82525050565b60006122bb826129f5565b6122c58185612a0b565b93506122d5818560208601612b76565b6122de81612d42565b840191505092915050565b60006122f482612a00565b6122fe8185612a1c565b935061230e818560208601612b76565b61231781612d42565b840191505092915050565b600061232d82612a00565b6123378185612a2d565b9350612347818560208601612b76565b80840191505092915050565b6000612360602583612a1c565b915061236b82612d53565b604082019050919050565b6000612383602783612a1c565b915061238e82612da2565b604082019050919050565b60006123a6603283612a1c565b91506123b182612df1565b604082019050919050565b60006123c9601c83612a1c565b91506123d482612e40565b602082019050919050565b60006123ec602483612a1c565b91506123f782612e69565b604082019050919050565b600061240f601983612a1c565b915061241a82612eb8565b602082019050919050565b6000612432602c83612a1c565b915061243d82612ee1565b604082019050919050565b6000612455603883612a1c565b915061246082612f30565b604082019050919050565b6000612478602a83612a1c565b915061248382612f7f565b604082019050919050565b600061249b602983612a1c565b91506124a682612fce565b604082019050919050565b60006124be602083612a1c565b91506124c98261301d565b602082019050919050565b60006124e1602c83612a1c565b91506124ec82613046565b604082019050919050565b6000612504602983612a1c565b915061250f82613095565b604082019050919050565b6000612527602f83612a1c565b9150612532826130e4565b604082019050919050565b600061254a601d83612a1c565b915061255582613133565b602082019050919050565b600061256d602183612a1c565b91506125788261315c565b604082019050919050565b6000612590601e83612a1c565b915061259b826131ab565b602082019050919050565b60006125b3602783612a1c565b91506125be826131d4565b604082019050919050565b60006125d6603183612a1c565b91506125e182613223565b604082019050919050565b6125f581612b5d565b82525050565b60006126078285612322565b91506126138284612322565b91508190509392505050565b60006020820190506126346000830184612292565b92915050565b600060808201905061264f6000830187612292565b61265c6020830186612292565b61266960408301856125ec565b818103606083015261267b81846122b0565b905095945050505050565b600060208201905061269b60008301846122a1565b92915050565b600060208201905081810360008301526126bb81846122e9565b905092915050565b600060408201905081810360008301526126dd81856122e9565b90506126ec6020830184612292565b9392505050565b6000602082019050818103600083015261270c81612353565b9050919050565b6000602082019050818103600083015261272c81612376565b9050919050565b6000602082019050818103600083015261274c81612399565b9050919050565b6000602082019050818103600083015261276c816123bc565b9050919050565b6000602082019050818103600083015261278c816123df565b9050919050565b600060208201905081810360008301526127ac81612402565b9050919050565b600060208201905081810360008301526127cc81612425565b9050919050565b600060208201905081810360008301526127ec81612448565b9050919050565b6000602082019050818103600083015261280c8161246b565b9050919050565b6000602082019050818103600083015261282c8161248e565b9050919050565b6000602082019050818103600083015261284c816124b1565b9050919050565b6000602082019050818103600083015261286c816124d4565b9050919050565b6000602082019050818103600083015261288c816124f7565b9050919050565b600060208201905081810360008301526128ac8161251a565b9050919050565b600060208201905081810360008301526128cc8161253d565b9050919050565b600060208201905081810360008301526128ec81612560565b9050919050565b6000602082019050818103600083015261290c81612583565b9050919050565b6000602082019050818103600083015261292c816125a6565b9050919050565b6000602082019050818103600083015261294c816125c9565b9050919050565b600060208201905061296860008301846125ec565b92915050565b6000612978612989565b90506129848282612bdb565b919050565b6000604051905090565b600067ffffffffffffffff8211156129ae576129ad612d13565b5b6129b782612d42565b9050602081019050919050565b600067ffffffffffffffff8211156129df576129de612d13565b5b6129e882612d42565b9050602081019050919050565b600081519050919050565b600081519050919050565b600082825260208201905092915050565b600082825260208201905092915050565b600081905092915050565b6000612a4382612b5d565b9150612a4e83612b5d565b9250827fffffffffffffffffffffffffffffffffffffffffffffffffffffffffffffffff03821115612a8357612a82612c86565b5b828201905092915050565b6000612a9982612b5d565b9150612aa483612b5d565b925082612ab457612ab3612cb5565b5b828204905092915050565b6000612aca82612b5d565b9150612ad583612b5d565b925082821015612ae857612ae7612c86565b5b828203905092915050565b6000612afe82612b3d565b9050919050565b60008115159050919050565b60007fffffffff0000000000000000000000000000000000000000000000000000000082169050919050565b600073ffffffffffffffffffffffffffffffffffffffff82169050919050565b6000819050919050565b82818337600083830152505050565b60005b83811015612b94578082015181840152602081019050612b79565b83811115612ba3576000848401525b50505050565b60006002820490506001821680612bc157607f821691505b60208210811415612bd557612bd4612ce4565b5b50919050565b612be482612d42565b810181811067ffffffffffffffff82111715612c0357612c02612d13565b5b80604052505050565b6000612c1782612b5d565b91507fffffffffffffffffffffffffffffffffffffffffffffffffffffffffffffffff821415612c4a57612c49612c86565b5b600182019050919050565b6000612c6082612b5d565b9150612c6b83612b5d565b925082612c7b57612c7a612cb5565b5b828206905092915050565b7f4e487b7100000000000000000000000000000000000000000000000000000000600052601160045260246000fd5b7f4e487b7100000000000000000000000000000000000000000000000000000000600052601260045260246000fd5b7f4e487b7100000000000000000000000000000000000000000000000000000000600052602260045260246000fd5b7f4e487b7100000000000000000000000000000000000000000000000000000000600052604160045260246000fd5b6000601f19601f8301169050919050565b7f4174206c65617374206f6e65206f662074686520737461727320646f6e27742060008201527f6578697374000000000000000000000000000000000000000000000000000000602082015250565b7f596f752063616e27742073616c6520746865205374617220796f7520646f6e2760008201527f74206f776e656400000000000000000000000000000000000000000000000000602082015250565b7f4552433732313a207472616e7366657220746f206e6f6e20455243373231526560008201527f63656976657220696d706c656d656e7465720000000000000000000000000000602082015250565b7f4552433732313a20746f6b656e20616c7265616479206d696e74656400000000600082015250565b7f4552433732313a207472616e7366657220746f20746865207a65726f2061646460008201527f7265737300000000000000000000000000000000000000000000000000000000602082015250565b7f4552433732313a20617070726f766520746f2063616c6c657200000000000000600082015250565b7f4552433732313a206f70657261746f7220717565727920666f72206e6f6e657860008201527f697374656e7420746f6b656e0000000000000000000000000000000000000000602082015250565b7f4552433732313a20617070726f76652063616c6c6572206973206e6f74206f7760008201527f6e6572206e6f7220617070726f76656420666f7220616c6c0000000000000000602082015250565b7f4552433732313a2062616c616e636520717565727920666f7220746865207a6560008201527f726f206164647265737300000000000000000000000000000000000000000000602082015250565b7f4552433732313a206f776e657220717565727920666f72206e6f6e657869737460008201527f656e7420746f6b656e0000000000000000000000000000000000000000000000602082015250565b7f4552433732313a206d696e7420746f20746865207a65726f2061646472657373600082015250565b7f4552433732313a20617070726f76656420717565727920666f72206e6f6e657860008201527f697374656e7420746f6b656e0000000000000000000000000000000000000000602082015250565b7f4552433732313a207472616e73666572206f6620746f6b656e2074686174206960008201527f73206e6f74206f776e0000000000000000000000000000000000000000000000602082015250565b7f4552433732314d657461646174613a2055524920717565727920666f72206e6f60008201527f6e6578697374656e7420746f6b656e0000000000000000000000000000000000602082015250565b7f596f75206e65656420746f206861766520656e6f756768204574686572000000600082015250565b7f4552433732313a20617070726f76616c20746f2063757272656e74206f776e6560008201527f7200000000000000000000000000000000000000000000000000000000000000602082015250565b7f54686520537461722073686f756c6420626520757020666f722073616c650000600082015250565b7f596f752063616e27742065786368616e6765207768617420796f7520646f6e2760008201527f74206f776e656400000000000000000000000000000000000000000000000000602082015250565b7f4552433732313a207472616e736665722063616c6c6572206973206e6f74206f60008201527f776e6572206e6f7220617070726f766564000000000000000000000000000000602082015250565b61327b81612af3565b811461328657600080fd5b50565b61329281612b05565b811461329d57600080fd5b50565b6132a981612b11565b81146132b457600080fd5b50565b6132c081612b5d565b81146132cb57600080fd5b5056fea264697066735822122085d96eb15b25ca63bcc474727a33b82cc3d105206f7355637fd1cc778df1d6da64736f6c63430008040033",
  "immutableReferences": {},
  "source": "// SPDX-License-Identifier: MIT\n\npragma solidity ^0.8.0;\n\nimport \"../client/node_modules/@openzeppelin/contracts/token/ERC721/ERC721.sol\";\n\ncontract StarNotary is ERC721 {\n    struct Star {\n        string name;\n    }\n\n    address public contarctAddress;\n\n    mapping(uint256 => Star) public tokenIdToStarInfo;\n    mapping(uint256 => uint256) public starsForSale;\n\n    constructor() ERC721(\"StarItem\", \"STR\") {\n        contarctAddress = address(this);\n    }\n\n    // Create Star using the Struct\n    function createStar(string memory _name, uint256 _tokenId) public {\n        // Passing the name and tokenId as a parameters\n        Star memory newStar = Star(_name); // Star is an struct so we are creating a new Star\n        tokenIdToStarInfo[_tokenId] = newStar; // Creating in memory the Star -> tokenId mapping\n        _mint(msg.sender, _tokenId); // _mint assign the the star with _tokenId to the sender address (ownership)\n    }\n\n    // Putting an Star for sale (Adding the star tokenid into the mapping starsForSale, first verify that the sender is the owner)\n    function putStarUpForSale(uint256 _tokenId, uint256 _price) public {\n        require(\n            ownerOf(_tokenId) == msg.sender,\n            \"You can't sale the Star you don't owned\"\n        );\n        starsForSale[_tokenId] = _price;\n        // address a = 0xc7ecDC1684563d773a10c10115b4699f33a49706;\n        // approve(contarctAddress, _tokenId);\n        // setApprovalForAll(contarctAddress, true);\n    }\n\n    // Function that allows you to convert an address into a payable address\n    function _make_payable(address x) internal pure returns (address payable) {\n        return payable(x);\n    }\n\n    function buyStar(uint256 _tokenId) public payable {\n        require(starsForSale[_tokenId] > 0, \"The Star should be up for sale\");\n        uint256 starCost = starsForSale[_tokenId];\n\n        address ownerAddress = ownerOf(_tokenId);\n        address payable ownerAddressPayable = _make_payable(ownerAddress); // We need to make this conversion to be able to use transfer() function to transfer ethers\n\n        address senderAddress = msg.sender;\n        address payable senderAddressPayable = _make_payable(senderAddress);\n\n        require(msg.value > starCost, \"You need to have enough Ether\");\n\n        _transfer(ownerAddress, senderAddress, _tokenId); // We can't use _addTokenTo or_removeTokenFrom functions, now we have to use _transferFrom\n\n        ownerAddressPayable.transfer(starCost);\n        if (msg.value > starCost) {\n            senderAddressPayable.transfer(msg.value - starCost);\n        }\n    }\n\n    function lookUptokenIdToStarInfo(uint256 _tokenId)\n        public\n        view\n        returns (string memory, address)\n    {\n        string memory starName = \"no star exist for this token\";\n        address starOwner;\n\n        if (_exists(_tokenId)) {\n            starName = tokenIdToStarInfo[_tokenId].name;\n            starOwner = ownerOf(_tokenId);\n        }\n        return (starName, starOwner);\n    }\n\n    function exchangeStars(uint256 _tokenId_user1, uint256 _tokenId_user2)\n        public\n    {\n        require(\n            _exists(_tokenId_user1) && _exists(_tokenId_user2),\n            \"At least one of the stars don't exist\"\n        );\n        require(\n            (ownerOf(_tokenId_user1) == msg.sender) ||\n                (ownerOf(_tokenId_user2) == msg.sender),\n            \"You can't exchange what you don't owned\"\n        );\n\n        address owner_user1 = ownerOf(_tokenId_user1);\n        address owner_user2 = ownerOf(_tokenId_user2);\n\n        _transfer(owner_user1, owner_user2, _tokenId_user1);\n        _transfer(owner_user2, owner_user1, _tokenId_user2);\n    }\n}\n",
  "sourcePath": "C:/blockchain/eth/ch3project/contracts/StarNotary.sol",
  "compiler": {
    "name": "solc",
    "version": "0.8.4+commit.c7e474f2.Emscripten.clang"
  },
  "schemaVersion": "3.4.1",
  "updatedAt": "2021-06-01T15:06:54.666Z",
  "networkType": "ethereum",
  "devdoc": {
    "kind": "dev",
    "methods": {
      "approve(address,uint256)": {
        "details": "See {IERC721-approve}."
      },
      "balanceOf(address)": {
        "details": "See {IERC721-balanceOf}."
      },
      "getApproved(uint256)": {
        "details": "See {IERC721-getApproved}."
      },
      "isApprovedForAll(address,address)": {
        "details": "See {IERC721-isApprovedForAll}."
      },
      "name()": {
        "details": "See {IERC721Metadata-name}."
      },
      "ownerOf(uint256)": {
        "details": "See {IERC721-ownerOf}."
      },
      "safeTransferFrom(address,address,uint256)": {
        "details": "See {IERC721-safeTransferFrom}."
      },
      "safeTransferFrom(address,address,uint256,bytes)": {
        "details": "See {IERC721-safeTransferFrom}."
      },
      "setApprovalForAll(address,bool)": {
        "details": "See {IERC721-setApprovalForAll}."
      },
      "supportsInterface(bytes4)": {
        "details": "See {IERC165-supportsInterface}."
      },
      "symbol()": {
        "details": "See {IERC721Metadata-symbol}."
      },
      "tokenURI(uint256)": {
        "details": "See {IERC721Metadata-tokenURI}."
      },
      "transferFrom(address,address,uint256)": {
        "details": "See {IERC721-transferFrom}."
      }
    },
    "version": 1
  },
  "userdoc": {
    "kind": "user",
    "methods": {},
    "version": 1
  }
}