{
  "contractName": "StarNotary",
  "abi": [
    {
      "inputs": [],
      "stateMutability": "nonpayable",
      "type": "constructor"
    },
    {
      "anonymous": false,
      "inputs": [
        {
          "indexed": true,
          "internalType": "address",
          "name": "owner",
          "type": "address"
        },
        {
          "indexed": true,
          "internalType": "address",
          "name": "approved",
          "type": "address"
        },
        {
          "indexed": true,
          "internalType": "uint256",
          "name": "tokenId",
          "type": "uint256"
        }
      ],
      "name": "Approval",
      "type": "event"
    },
    {
      "anonymous": false,
      "inputs": [
        {
          "indexed": true,
          "internalType": "address",
          "name": "owner",
          "type": "address"
        },
        {
          "indexed": true,
          "internalType": "address",
          "name": "operator",
          "type": "address"
        },
        {
          "indexed": false,
          "internalType": "bool",
          "name": "approved",
          "type": "bool"
        }
      ],
      "name": "ApprovalForAll",
      "type": "event"
    },
    {
      "anonymous": false,
      "inputs": [
        {
          "indexed": true,
          "internalType": "address",
          "name": "from",
          "type": "address"
        },
        {
          "indexed": true,
          "internalType": "address",
          "name": "to",
          "type": "address"
        },
        {
          "indexed": true,
          "internalType": "uint256",
          "name": "tokenId",
          "type": "uint256"
        }
      ],
      "name": "Transfer",
      "type": "event"
    },
    {
      "inputs": [
        {
          "internalType": "address",
          "name": "to",
          "type": "address"
        },
        {
          "internalType": "uint256",
          "name": "tokenId",
          "type": "uint256"
        }
      ],
      "name": "approve",
      "outputs": [],
      "stateMutability": "nonpayable",
      "type": "function"
    },
    {
      "inputs": [
        {
          "internalType": "address",
          "name": "owner",
          "type": "address"
        }
      ],
      "name": "balanceOf",
      "outputs": [
        {
          "internalType": "uint256",
          "name": "",
          "type": "uint256"
        }
      ],
      "stateMutability": "view",
      "type": "function",
      "constant": true
    },
    {
      "inputs": [],
      "name": "contarctAddress",
      "outputs": [
        {
          "internalType": "address",
          "name": "",
          "type": "address"
        }
      ],
      "stateMutability": "view",
      "type": "function",
      "constant": true
    },
    {
      "inputs": [
        {
          "internalType": "uint256",
          "name": "tokenId",
          "type": "uint256"
        }
      ],
      "name": "getApproved",
      "outputs": [
        {
          "internalType": "address",
          "name": "",
          "type": "address"
        }
      ],
      "stateMutability": "view",
      "type": "function",
      "constant": true
    },
    {
      "inputs": [
        {
          "internalType": "address",
          "name": "owner",
          "type": "address"
        },
        {
          "internalType": "address",
          "name": "operator",
          "type": "address"
        }
      ],
      "name": "isApprovedForAll",
      "outputs": [
        {
          "internalType": "bool",
          "name": "",
          "type": "bool"
        }
      ],
      "stateMutability": "view",
      "type": "function",
      "constant": true
    },
    {
      "inputs": [],
      "name": "name",
      "outputs": [
        {
          "internalType": "string",
          "name": "",
          "type": "string"
        }
      ],
      "stateMutability": "view",
      "type": "function",
      "constant": true
    },
    {
      "inputs": [
        {
          "internalType": "uint256",
          "name": "tokenId",
          "type": "uint256"
        }
      ],
      "name": "ownerOf",
      "outputs": [
        {
          "internalType": "address",
          "name": "",
          "type": "address"
        }
      ],
      "stateMutability": "view",
      "type": "function",
      "constant": true
    },
    {
      "inputs": [
        {
          "internalType": "address",
          "name": "from",
          "type": "address"
        },
        {
          "internalType": "address",
          "name": "to",
          "type": "address"
        },
        {
          "internalType": "uint256",
          "name": "tokenId",
          "type": "uint256"
        }
      ],
      "name": "safeTransferFrom",
      "outputs": [],
      "stateMutability": "nonpayable",
      "type": "function"
    },
    {
      "inputs": [
        {
          "internalType": "address",
          "name": "from",
          "type": "address"
        },
        {
          "internalType": "address",
          "name": "to",
          "type": "address"
        },
        {
          "internalType": "uint256",
          "name": "tokenId",
          "type": "uint256"
        },
        {
          "internalType": "bytes",
          "name": "_data",
          "type": "bytes"
        }
      ],
      "name": "safeTransferFrom",
      "outputs": [],
      "stateMutability": "nonpayable",
      "type": "function"
    },
    {
      "inputs": [
        {
          "internalType": "address",
          "name": "operator",
          "type": "address"
        },
        {
          "internalType": "bool",
          "name": "approved",
          "type": "bool"
        }
      ],
      "name": "setApprovalForAll",
      "outputs": [],
      "stateMutability": "nonpayable",
      "type": "function"
    },
    {
      "inputs": [
        {
          "internalType": "uint256",
          "name": "",
          "type": "uint256"
        }
      ],
      "name": "starsForSale",
      "outputs": [
        {
          "internalType": "uint256",
          "name": "",
          "type": "uint256"
        }
      ],
      "stateMutability": "view",
      "type": "function",
      "constant": true
    },
    {
      "inputs": [
        {
          "internalType": "bytes4",
          "name": "interfaceId",
          "type": "bytes4"
        }
      ],
      "name": "supportsInterface",
      "outputs": [
        {
          "internalType": "bool",
          "name": "",
          "type": "bool"
        }
      ],
      "stateMutability": "view",
      "type": "function",
      "constant": true
    },
    {
      "inputs": [],
      "name": "symbol",
      "outputs": [
        {
          "internalType": "string",
          "name": "",
          "type": "string"
        }
      ],
      "stateMutability": "view",
      "type": "function",
      "constant": true
    },
    {
      "inputs": [
        {
          "internalType": "uint256",
          "name": "",
          "type": "uint256"
        }
      ],
      "name": "tokenIdToStarInfo",
      "outputs": [
        {
          "internalType": "string",
          "name": "name",
          "type": "string"
        }
      ],
      "stateMutability": "view",
      "type": "function",
      "constant": true
    },
    {
      "inputs": [
        {
          "internalType": "uint256",
          "name": "tokenId",
          "type": "uint256"
        }
      ],
      "name": "tokenURI",
      "outputs": [
        {
          "internalType": "string",
          "name": "",
          "type": "string"
        }
      ],
      "stateMutability": "view",
      "type": "function",
      "constant": true
    },
    {
      "inputs": [
        {
          "internalType": "address",
          "name": "from",
          "type": "address"
        },
        {
          "internalType": "address",
          "name": "to",
          "type": "address"
        },
        {
          "internalType": "uint256",
          "name": "tokenId",
          "type": "uint256"
        }
      ],
      "name": "transferFrom",
      "outputs": [],
      "stateMutability": "nonpayable",
      "type": "function"
    },
    {
      "inputs": [
        {
          "internalType": "string",
          "name": "_name",
          "type": "string"
        },
        {
          "internalType": "uint256",
          "name": "_tokenId",
          "type": "uint256"
        }
      ],
      "name": "createStar",
      "outputs": [],
      "stateMutability": "nonpayable",
      "type": "function"
    },
    {
      "inputs": [
        {
          "internalType": "uint256",
          "name": "_tokenId",
          "type": "uint256"
        },
        {
          "internalType": "uint256",
          "name": "_price",
          "type": "uint256"
        }
      ],
      "name": "putStarUpForSale",
      "outputs": [],
      "stateMutability": "nonpayable",
      "type": "function"
    },
    {
      "inputs": [
        {
          "internalType": "uint256",
          "name": "_tokenId",
          "type": "uint256"
        }
      ],
      "name": "buyStar",
      "outputs": [],
      "stateMutability": "payable",
      "type": "function",
      "payable": true
    },
    {
      "inputs": [
        {
          "internalType": "uint256",
          "name": "_tokenId",
          "type": "uint256"
        }
      ],
      "name": "lookUptokenIdToStarInfo",
      "outputs": [
        {
          "internalType": "string",
          "name": "",
          "type": "string"
        },
        {
          "internalType": "address",
          "name": "",
          "type": "address"
        }
      ],
      "stateMutability": "view",
      "type": "function",
      "constant": true
    },
    {
      "inputs": [
        {
          "internalType": "uint256",
          "name": "_tokenId_user1",
          "type": "uint256"
        },
        {
          "internalType": "uint256",
          "name": "_tokenId_user2",
          "type": "uint256"
        }
      ],
      "name": "exchangeStars",
      "outputs": [],
      "stateMutability": "nonpayable",
      "type": "function"
    },
    {
      "inputs": [
        {
          "internalType": "address",
          "name": "_to",
          "type": "address"
        },
        {
          "internalType": "uint256",
          "name": "_tokenId",
          "type": "uint256"
        }
      ],
      "name": "transferStars",
      "outputs": [],
      "stateMutability": "nonpayable",
      "type": "function"
    }
  ],
  "bytecode": "0x60806040523480156200001157600080fd5b506040518060400160405280600881526020017f537461724974656d0000000000000000000000000000000000000000000000008152506040518060400160405280600381526020017f5354520000000000000000000000000000000000000000000000000000000000815250816000908051906020019062000096929190620000f9565b508060019080519060200190620000af929190620000f9565b50505030600660006101000a81548173ffffffffffffffffffffffffffffffffffffffff021916908373ffffffffffffffffffffffffffffffffffffffff1602179055506200020e565b8280546200010790620001a9565b90600052602060002090601f0160209004810192826200012b576000855562000177565b82601f106200014657805160ff191683800117855562000177565b8280016001018555821562000177579182015b828111156200017657825182559160200191906001019062000159565b5b5090506200018691906200018a565b5090565b5b80821115620001a55760008160009055506001016200018b565b5090565b60006002820490506001821680620001c257607f821691505b60208210811415620001d957620001d8620001df565b5b50919050565b7f4e487b7100000000000000000000000000000000000000000000000000000000600052602260045260246000fd5b61344f806200021e6000396000f3fe6080604052600436106101355760003560e01c80636352211e116100ab578063a22cb4651161006f578063a22cb4651461043b578063b88d4fde14610464578063c87b56dd1461048d578063d7830ccb146104ca578063e985e9c514610508578063f06199df1461054557610135565b80636352211e1461034257806370a082311461037f5780637d65a67d146103bc57806395d89b41146103e75780639697c0a11461041257610135565b806315e0afa5116100fd57806315e0afa5146102455780631967fd981461026e57806323b872dd146102ab5780632f1c34ef146102d4578063316a4361146102f057806342842e0e1461031957610135565b806301ffc9a71461013a5780630564b1301461017757806306fdde03146101b4578063081812fc146101df578063095ea7b31461021c575b600080fd5b34801561014657600080fd5b50610161600480360381019061015c9190612240565b61056e565b60405161016e9190612762565b60405180910390f35b34801561018357600080fd5b5061019e600480360381019061019991906122e6565b610650565b6040516101ab9190612a4f565b60405180910390f35b3480156101c057600080fd5b506101c9610668565b6040516101d6919061277d565b60405180910390f35b3480156101eb57600080fd5b50610206600480360381019061020191906122e6565b6106fa565b60405161021391906126fb565b60405180910390f35b34801561022857600080fd5b50610243600480360381019061023e9190612204565b61077f565b005b34801561025157600080fd5b5061026c6004803603810190610267919061230f565b610897565b005b34801561027a57600080fd5b50610295600480360381019061029091906122e6565b6109da565b6040516102a2919061277d565b60405180910390f35b3480156102b757600080fd5b506102d260048036038101906102cd91906120fe565b610a80565b005b6102ee60048036038101906102e991906122e6565b610ae0565b005b3480156102fc57600080fd5b506103176004803603810190610312919061230f565b610c71565b005b34801561032557600080fd5b50610340600480360381019061033b91906120fe565b610d03565b005b34801561034e57600080fd5b50610369600480360381019061036491906122e6565b610d23565b60405161037691906126fb565b60405180910390f35b34801561038b57600080fd5b506103a660048036038101906103a19190612099565b610dd5565b6040516103b39190612a4f565b60405180910390f35b3480156103c857600080fd5b506103d1610e8d565b6040516103de91906126fb565b60405180910390f35b3480156103f357600080fd5b506103fc610eb3565b604051610409919061277d565b60405180910390f35b34801561041e57600080fd5b5061043960048036038101906104349190612292565b610f45565b005b34801561044757600080fd5b50610462600480360381019061045d91906121c8565b610f9b565b005b34801561047057600080fd5b5061048b6004803603810190610486919061214d565b61111c565b005b34801561049957600080fd5b506104b460048036038101906104af91906122e6565b61117e565b6040516104c1919061277d565b60405180910390f35b3480156104d657600080fd5b506104f160048036038101906104ec91906122e6565b611225565b6040516104ff92919061279f565b60405180910390f35b34801561051457600080fd5b5061052f600480360381019061052a91906120c2565b61132c565b60405161053c9190612762565b60405180910390f35b34801561055157600080fd5b5061056c60048036038101906105679190612204565b6113c0565b005b60007f80ac58cd000000000000000000000000000000000000000000000000000000007bffffffffffffffffffffffffffffffffffffffffffffffffffffffff1916827bffffffffffffffffffffffffffffffffffffffffffffffffffffffff1916148061063957507f5b5e139f000000000000000000000000000000000000000000000000000000007bffffffffffffffffffffffffffffffffffffffffffffffffffffffff1916827bffffffffffffffffffffffffffffffffffffffffffffffffffffffff1916145b80610649575061064882611445565b5b9050919050565b60086020528060005260406000206000915090505481565b60606000805461067790612ca5565b80601f01602080910402602001604051908101604052809291908181526020018280546106a390612ca5565b80156106f05780601f106106c5576101008083540402835291602001916106f0565b820191906000526020600020905b8154815290600101906020018083116106d357829003601f168201915b5050505050905090565b6000610705826114af565b610744576040517f08c379a000000000000000000000000000000000000000000000000000000000815260040161073b9061294f565b60405180910390fd5b6004600083815260200190815260200160002060009054906101000a900473ffffffffffffffffffffffffffffffffffffffff169050919050565b600061078a82610d23565b90508073ffffffffffffffffffffffffffffffffffffffff168373ffffffffffffffffffffffffffffffffffffffff1614156107fb576040517f08c379a00000000000000000000000000000000000000000000000000000000081526004016107f2906129cf565b60405180910390fd5b8073ffffffffffffffffffffffffffffffffffffffff1661081a61151b565b73ffffffffffffffffffffffffffffffffffffffff16148061084957506108488161084361151b565b61132c565b5b610888576040517f08c379a000000000000000000000000000000000000000000000000000000000815260040161087f906128cf565b60405180910390fd5b6108928383611523565b505050565b6108a0826114af565b80156108b157506108b0816114af565b5b6108f0576040517f08c379a00000000000000000000000000000000000000000000000000000000081526004016108e7906127cf565b60405180910390fd5b3373ffffffffffffffffffffffffffffffffffffffff1661091083610d23565b73ffffffffffffffffffffffffffffffffffffffff16148061096557503373ffffffffffffffffffffffffffffffffffffffff1661094d82610d23565b73ffffffffffffffffffffffffffffffffffffffff16145b6109a4576040517f08c379a000000000000000000000000000000000000000000000000000000000815260040161099b90612a0f565b60405180910390fd5b60006109af83610d23565b905060006109bc83610d23565b90506109c98282866115dc565b6109d48183856115dc565b50505050565b60076020528060005260406000206000915090508060000180546109fd90612ca5565b80601f0160208091040260200160405190810160405280929190818152602001828054610a2990612ca5565b8015610a765780601f10610a4b57610100808354040283529160200191610a76565b820191906000526020600020905b815481529060010190602001808311610a5957829003601f168201915b5050505050905081565b610a91610a8b61151b565b82611838565b610ad0576040517f08c379a0000000000000000000000000000000000000000000000000000000008152600401610ac790612a2f565b60405180910390fd5b610adb8383836115dc565b505050565b6000600860008381526020019081526020016000205411610b36576040517f08c379a0000000000000000000000000000000000000000000000000000000008152600401610b2d906129ef565b60405180910390fd5b6000600860008381526020019081526020016000205490506000610b5983610d23565b90506000610b6682611916565b905060003390506000610b7882611916565b9050843411610bbc576040517f08c379a0000000000000000000000000000000000000000000000000000000008152600401610bb3906129af565b60405180910390fd5b610bc78483886115dc565b8273ffffffffffffffffffffffffffffffffffffffff166108fc869081150290604051600060405180830381858888f19350505050158015610c0d573d6000803e3d6000fd5b5084341115610c69578073ffffffffffffffffffffffffffffffffffffffff166108fc8634610c3c9190612bbb565b9081150290604051600060405180830381858888f19350505050158015610c67573d6000803e3d6000fd5b505b505050505050565b3373ffffffffffffffffffffffffffffffffffffffff16610c9183610d23565b73ffffffffffffffffffffffffffffffffffffffff1614610ce7576040517f08c379a0000000000000000000000000000000000000000000000000000000008152600401610cde906127ef565b60405180910390fd5b8060086000848152602001908152602001600020819055505050565b610d1e8383836040518060200160405280600081525061111c565b505050565b6000806002600084815260200190815260200160002060009054906101000a900473ffffffffffffffffffffffffffffffffffffffff169050600073ffffffffffffffffffffffffffffffffffffffff168173ffffffffffffffffffffffffffffffffffffffff161415610dcc576040517f08c379a0000000000000000000000000000000000000000000000000000000008152600401610dc39061290f565b60405180910390fd5b80915050919050565b60008073ffffffffffffffffffffffffffffffffffffffff168273ffffffffffffffffffffffffffffffffffffffff161415610e46576040517f08c379a0000000000000000000000000000000000000000000000000000000008152600401610e3d906128ef565b60405180910390fd5b600360008373ffffffffffffffffffffffffffffffffffffffff1673ffffffffffffffffffffffffffffffffffffffff168152602001908152602001600020549050919050565b600660009054906101000a900473ffffffffffffffffffffffffffffffffffffffff1681565b606060018054610ec290612ca5565b80601f0160208091040260200160405190810160405280929190818152602001828054610eee90612ca5565b8015610f3b5780601f10610f1057610100808354040283529160200191610f3b565b820191906000526020600020905b815481529060010190602001808311610f1e57829003601f168201915b5050505050905090565b6000604051806020016040528084815250905080600760008481526020019081526020016000206000820151816000019080519060200190610f88929190611ebd565b50905050610f963383611920565b505050565b610fa361151b565b73ffffffffffffffffffffffffffffffffffffffff168273ffffffffffffffffffffffffffffffffffffffff161415611011576040517f08c379a00000000000000000000000000000000000000000000000000000000081526004016110089061288f565b60405180910390fd5b806005600061101e61151b565b73ffffffffffffffffffffffffffffffffffffffff1673ffffffffffffffffffffffffffffffffffffffff16815260200190815260200160002060008473ffffffffffffffffffffffffffffffffffffffff1673ffffffffffffffffffffffffffffffffffffffff16815260200190815260200160002060006101000a81548160ff0219169083151502179055508173ffffffffffffffffffffffffffffffffffffffff166110cb61151b565b73ffffffffffffffffffffffffffffffffffffffff167f17307eab39ab6107e8899845ad3d59bd9653f200f220920489ca2b5937696c31836040516111109190612762565b60405180910390a35050565b61112d61112761151b565b83611838565b61116c576040517f08c379a000000000000000000000000000000000000000000000000000000000815260040161116390612a2f565b60405180910390fd5b61117884848484611aee565b50505050565b6060611189826114af565b6111c8576040517f08c379a00000000000000000000000000000000000000000000000000000000081526004016111bf9061298f565b60405180910390fd5b60006111d2611b4a565b905060008151116111f2576040518060200160405280600081525061121d565b806111fc84611b61565b60405160200161120d9291906126d7565b6040516020818303038152906040525b915050919050565b60606000806040518060400160405280601c81526020017f6e6f207374617220657869737420666f72207468697320746f6b656e000000008152509050600061126d856114af565b1561131f5760076000868152602001908152602001600020600001805461129390612ca5565b80601f01602080910402602001604051908101604052809291908181526020018280546112bf90612ca5565b801561130c5780601f106112e15761010080835404028352916020019161130c565b820191906000526020600020905b8154815290600101906020018083116112ef57829003601f168201915b5050505050915061131c85610d23565b90505b8181935093505050915091565b6000600560008473ffffffffffffffffffffffffffffffffffffffff1673ffffffffffffffffffffffffffffffffffffffff16815260200190815260200160002060008373ffffffffffffffffffffffffffffffffffffffff1673ffffffffffffffffffffffffffffffffffffffff16815260200190815260200160002060009054906101000a900460ff16905092915050565b3373ffffffffffffffffffffffffffffffffffffffff166113e082610d23565b73ffffffffffffffffffffffffffffffffffffffff1614611436576040517f08c379a000000000000000000000000000000000000000000000000000000000815260040161142d9061280f565b60405180910390fd5b611441338383610a80565b5050565b60007f01ffc9a7000000000000000000000000000000000000000000000000000000007bffffffffffffffffffffffffffffffffffffffffffffffffffffffff1916827bffffffffffffffffffffffffffffffffffffffffffffffffffffffff1916149050919050565b60008073ffffffffffffffffffffffffffffffffffffffff166002600084815260200190815260200160002060009054906101000a900473ffffffffffffffffffffffffffffffffffffffff1673ffffffffffffffffffffffffffffffffffffffff1614159050919050565b600033905090565b816004600083815260200190815260200160002060006101000a81548173ffffffffffffffffffffffffffffffffffffffff021916908373ffffffffffffffffffffffffffffffffffffffff160217905550808273ffffffffffffffffffffffffffffffffffffffff1661159683610d23565b73ffffffffffffffffffffffffffffffffffffffff167f8c5be1e5ebec7d5bd14f71427d1e84f3dd0314c0f7b2291e5b200ac8c7c3b92560405160405180910390a45050565b8273ffffffffffffffffffffffffffffffffffffffff166115fc82610d23565b73ffffffffffffffffffffffffffffffffffffffff1614611652576040517f08c379a00000000000000000000000000000000000000000000000000000000081526004016116499061296f565b60405180910390fd5b600073ffffffffffffffffffffffffffffffffffffffff168273ffffffffffffffffffffffffffffffffffffffff1614156116c2576040517f08c379a00000000000000000000000000000000000000000000000000000000081526004016116b99061286f565b60405180910390fd5b6116cd838383611d0e565b6116d8600082611523565b6001600360008573ffffffffffffffffffffffffffffffffffffffff1673ffffffffffffffffffffffffffffffffffffffff16815260200190815260200160002060008282546117289190612bbb565b925050819055506001600360008473ffffffffffffffffffffffffffffffffffffffff1673ffffffffffffffffffffffffffffffffffffffff168152602001908152602001600020600082825461177f9190612b34565b92505081905550816002600083815260200190815260200160002060006101000a81548173ffffffffffffffffffffffffffffffffffffffff021916908373ffffffffffffffffffffffffffffffffffffffff160217905550808273ffffffffffffffffffffffffffffffffffffffff168473ffffffffffffffffffffffffffffffffffffffff167fddf252ad1be2c89b69c2b068fc378daa952ba7f163c4a11628f55a4df523b3ef60405160405180910390a4505050565b6000611843826114af565b611882576040517f08c379a0000000000000000000000000000000000000000000000000000000008152600401611879906128af565b60405180910390fd5b600061188d83610d23565b90508073ffffffffffffffffffffffffffffffffffffffff168473ffffffffffffffffffffffffffffffffffffffff1614806118fc57508373ffffffffffffffffffffffffffffffffffffffff166118e4846106fa565b73ffffffffffffffffffffffffffffffffffffffff16145b8061190d575061190c818561132c565b5b91505092915050565b6000819050919050565b600073ffffffffffffffffffffffffffffffffffffffff168273ffffffffffffffffffffffffffffffffffffffff161415611990576040517f08c379a00000000000000000000000000000000000000000000000000000000081526004016119879061292f565b60405180910390fd5b611999816114af565b156119d9576040517f08c379a00000000000000000000000000000000000000000000000000000000081526004016119d09061284f565b60405180910390fd5b6119e560008383611d0e565b6001600360008473ffffffffffffffffffffffffffffffffffffffff1673ffffffffffffffffffffffffffffffffffffffff1681526020019081526020016000206000828254611a359190612b34565b92505081905550816002600083815260200190815260200160002060006101000a81548173ffffffffffffffffffffffffffffffffffffffff021916908373ffffffffffffffffffffffffffffffffffffffff160217905550808273ffffffffffffffffffffffffffffffffffffffff16600073ffffffffffffffffffffffffffffffffffffffff167fddf252ad1be2c89b69c2b068fc378daa952ba7f163c4a11628f55a4df523b3ef60405160405180910390a45050565b611af98484846115dc565b611b0584848484611d13565b611b44576040517f08c379a0000000000000000000000000000000000000000000000000000000008152600401611b3b9061282f565b60405180910390fd5b50505050565b606060405180602001604052806000815250905090565b60606000821415611ba9576040518060400160405280600181526020017f30000000000000000000000000000000000000000000000000000000000000008152509050611d09565b600082905060005b60008214611bdb578080611bc490612d08565b915050600a82611bd49190612b8a565b9150611bb1565b60008167ffffffffffffffff811115611c1d577f4e487b7100000000000000000000000000000000000000000000000000000000600052604160045260246000fd5b6040519080825280601f01601f191660200182016040528015611c4f5781602001600182028036833780820191505090505b5090505b60008514611d0257600182611c689190612bbb565b9150600a85611c779190612d51565b6030611c839190612b34565b60f81b818381518110611cbf577f4e487b7100000000000000000000000000000000000000000000000000000000600052603260045260246000fd5b60200101907effffffffffffffffffffffffffffffffffffffffffffffffffffffffffffff1916908160001a905350600a85611cfb9190612b8a565b9450611c53565b8093505050505b919050565b505050565b6000611d348473ffffffffffffffffffffffffffffffffffffffff16611eaa565b15611e9d578373ffffffffffffffffffffffffffffffffffffffff1663150b7a02611d5d61151b565b8786866040518563ffffffff1660e01b8152600401611d7f9493929190612716565b602060405180830381600087803b158015611d9957600080fd5b505af1925050508015611dca57506040513d601f19601f82011682018060405250810190611dc79190612269565b60015b611e4d573d8060008114611dfa576040519150601f19603f3d011682016040523d82523d6000602084013e611dff565b606091505b50600081511415611e45576040517f08c379a0000000000000000000000000000000000000000000000000000000008152600401611e3c9061282f565b60405180910390fd5b805181602001fd5b63150b7a0260e01b7bffffffffffffffffffffffffffffffffffffffffffffffffffffffff1916817bffffffffffffffffffffffffffffffffffffffffffffffffffffffff191614915050611ea2565b600190505b949350505050565b600080823b905060008111915050919050565b828054611ec990612ca5565b90600052602060002090601f016020900481019282611eeb5760008555611f32565b82601f10611f0457805160ff1916838001178555611f32565b82800160010185558215611f32579182015b82811115611f31578251825591602001919060010190611f16565b5b509050611f3f9190611f43565b5090565b5b80821115611f5c576000816000905550600101611f44565b5090565b6000611f73611f6e84612a8f565b612a6a565b905082815260208101848484011115611f8b57600080fd5b611f96848285612c63565b509392505050565b6000611fb1611fac84612ac0565b612a6a565b905082815260208101848484011115611fc957600080fd5b611fd4848285612c63565b509392505050565b600081359050611feb816133bd565b92915050565b600081359050612000816133d4565b92915050565b600081359050612015816133eb565b92915050565b60008151905061202a816133eb565b92915050565b600082601f83011261204157600080fd5b8135612051848260208601611f60565b91505092915050565b600082601f83011261206b57600080fd5b813561207b848260208601611f9e565b91505092915050565b60008135905061209381613402565b92915050565b6000602082840312156120ab57600080fd5b60006120b984828501611fdc565b91505092915050565b600080604083850312156120d557600080fd5b60006120e385828601611fdc565b92505060206120f485828601611fdc565b9150509250929050565b60008060006060848603121561211357600080fd5b600061212186828701611fdc565b935050602061213286828701611fdc565b925050604061214386828701612084565b9150509250925092565b6000806000806080858703121561216357600080fd5b600061217187828801611fdc565b945050602061218287828801611fdc565b935050604061219387828801612084565b925050606085013567ffffffffffffffff8111156121b057600080fd5b6121bc87828801612030565b91505092959194509250565b600080604083850312156121db57600080fd5b60006121e985828601611fdc565b92505060206121fa85828601611ff1565b9150509250929050565b6000806040838503121561221757600080fd5b600061222585828601611fdc565b925050602061223685828601612084565b9150509250929050565b60006020828403121561225257600080fd5b600061226084828501612006565b91505092915050565b60006020828403121561227b57600080fd5b60006122898482850161201b565b91505092915050565b600080604083850312156122a557600080fd5b600083013567ffffffffffffffff8111156122bf57600080fd5b6122cb8582860161205a565b92505060206122dc85828601612084565b9150509250929050565b6000602082840312156122f857600080fd5b600061230684828501612084565b91505092915050565b6000806040838503121561232257600080fd5b600061233085828601612084565b925050602061234185828601612084565b9150509250929050565b61235481612bef565b82525050565b61236381612c01565b82525050565b600061237482612af1565b61237e8185612b07565b935061238e818560208601612c72565b61239781612e3e565b840191505092915050565b60006123ad82612afc565b6123b78185612b18565b93506123c7818560208601612c72565b6123d081612e3e565b840191505092915050565b60006123e682612afc565b6123f08185612b29565b9350612400818560208601612c72565b80840191505092915050565b6000612419602583612b18565b915061242482612e4f565b604082019050919050565b600061243c602783612b18565b915061244782612e9e565b604082019050919050565b600061245f602b83612b18565b915061246a82612eed565b604082019050919050565b6000612482603283612b18565b915061248d82612f3c565b604082019050919050565b60006124a5601c83612b18565b91506124b082612f8b565b602082019050919050565b60006124c8602483612b18565b91506124d382612fb4565b604082019050919050565b60006124eb601983612b18565b91506124f682613003565b602082019050919050565b600061250e602c83612b18565b91506125198261302c565b604082019050919050565b6000612531603883612b18565b915061253c8261307b565b604082019050919050565b6000612554602a83612b18565b915061255f826130ca565b604082019050919050565b6000612577602983612b18565b915061258282613119565b604082019050919050565b600061259a602083612b18565b91506125a582613168565b602082019050919050565b60006125bd602c83612b18565b91506125c882613191565b604082019050919050565b60006125e0602983612b18565b91506125eb826131e0565b604082019050919050565b6000612603602f83612b18565b915061260e8261322f565b604082019050919050565b6000612626601d83612b18565b91506126318261327e565b602082019050919050565b6000612649602183612b18565b9150612654826132a7565b604082019050919050565b600061266c601e83612b18565b9150612677826132f6565b602082019050919050565b600061268f602783612b18565b915061269a8261331f565b604082019050919050565b60006126b2603183612b18565b91506126bd8261336e565b604082019050919050565b6126d181612c59565b82525050565b60006126e382856123db565b91506126ef82846123db565b91508190509392505050565b6000602082019050612710600083018461234b565b92915050565b600060808201905061272b600083018761234b565b612738602083018661234b565b61274560408301856126c8565b81810360608301526127578184612369565b905095945050505050565b6000602082019050612777600083018461235a565b92915050565b6000602082019050818103600083015261279781846123a2565b905092915050565b600060408201905081810360008301526127b981856123a2565b90506127c8602083018461234b565b9392505050565b600060208201905081810360008301526127e88161240c565b9050919050565b600060208201905081810360008301526128088161242f565b9050919050565b6000602082019050818103600083015261282881612452565b9050919050565b6000602082019050818103600083015261284881612475565b9050919050565b6000602082019050818103600083015261286881612498565b9050919050565b60006020820190508181036000830152612888816124bb565b9050919050565b600060208201905081810360008301526128a8816124de565b9050919050565b600060208201905081810360008301526128c881612501565b9050919050565b600060208201905081810360008301526128e881612524565b9050919050565b6000602082019050818103600083015261290881612547565b9050919050565b600060208201905081810360008301526129288161256a565b9050919050565b600060208201905081810360008301526129488161258d565b9050919050565b60006020820190508181036000830152612968816125b0565b9050919050565b60006020820190508181036000830152612988816125d3565b9050919050565b600060208201905081810360008301526129a8816125f6565b9050919050565b600060208201905081810360008301526129c881612619565b9050919050565b600060208201905081810360008301526129e88161263c565b9050919050565b60006020820190508181036000830152612a088161265f565b9050919050565b60006020820190508181036000830152612a2881612682565b9050919050565b60006020820190508181036000830152612a48816126a5565b9050919050565b6000602082019050612a6460008301846126c8565b92915050565b6000612a74612a85565b9050612a808282612cd7565b919050565b6000604051905090565b600067ffffffffffffffff821115612aaa57612aa9612e0f565b5b612ab382612e3e565b9050602081019050919050565b600067ffffffffffffffff821115612adb57612ada612e0f565b5b612ae482612e3e565b9050602081019050919050565b600081519050919050565b600081519050919050565b600082825260208201905092915050565b600082825260208201905092915050565b600081905092915050565b6000612b3f82612c59565b9150612b4a83612c59565b9250827fffffffffffffffffffffffffffffffffffffffffffffffffffffffffffffffff03821115612b7f57612b7e612d82565b5b828201905092915050565b6000612b9582612c59565b9150612ba083612c59565b925082612bb057612baf612db1565b5b828204905092915050565b6000612bc682612c59565b9150612bd183612c59565b925082821015612be457612be3612d82565b5b828203905092915050565b6000612bfa82612c39565b9050919050565b60008115159050919050565b60007fffffffff0000000000000000000000000000000000000000000000000000000082169050919050565b600073ffffffffffffffffffffffffffffffffffffffff82169050919050565b6000819050919050565b82818337600083830152505050565b60005b83811015612c90578082015181840152602081019050612c75565b83811115612c9f576000848401525b50505050565b60006002820490506001821680612cbd57607f821691505b60208210811415612cd157612cd0612de0565b5b50919050565b612ce082612e3e565b810181811067ffffffffffffffff82111715612cff57612cfe612e0f565b5b80604052505050565b6000612d1382612c59565b91507fffffffffffffffffffffffffffffffffffffffffffffffffffffffffffffffff821415612d4657612d45612d82565b5b600182019050919050565b6000612d5c82612c59565b9150612d6783612c59565b925082612d7757612d76612db1565b5b828206905092915050565b7f4e487b7100000000000000000000000000000000000000000000000000000000600052601160045260246000fd5b7f4e487b7100000000000000000000000000000000000000000000000000000000600052601260045260246000fd5b7f4e487b7100000000000000000000000000000000000000000000000000000000600052602260045260246000fd5b7f4e487b7100000000000000000000000000000000000000000000000000000000600052604160045260246000fd5b6000601f19601f8301169050919050565b7f4174206c65617374206f6e65206f662074686520737461727320646f6e27742060008201527f6578697374000000000000000000000000000000000000000000000000000000602082015250565b7f596f752063616e27742073616c6520746865205374617220796f7520646f6e2760008201527f74206f776e656400000000000000000000000000000000000000000000000000602082015250565b7f596f752063616e2774207472616e7366657220746865205374617220796f752060008201527f646f6e2774206f776e6564000000000000000000000000000000000000000000602082015250565b7f4552433732313a207472616e7366657220746f206e6f6e20455243373231526560008201527f63656976657220696d706c656d656e7465720000000000000000000000000000602082015250565b7f4552433732313a20746f6b656e20616c7265616479206d696e74656400000000600082015250565b7f4552433732313a207472616e7366657220746f20746865207a65726f2061646460008201527f7265737300000000000000000000000000000000000000000000000000000000602082015250565b7f4552433732313a20617070726f766520746f2063616c6c657200000000000000600082015250565b7f4552433732313a206f70657261746f7220717565727920666f72206e6f6e657860008201527f697374656e7420746f6b656e0000000000000000000000000000000000000000602082015250565b7f4552433732313a20617070726f76652063616c6c6572206973206e6f74206f7760008201527f6e6572206e6f7220617070726f76656420666f7220616c6c0000000000000000602082015250565b7f4552433732313a2062616c616e636520717565727920666f7220746865207a6560008201527f726f206164647265737300000000000000000000000000000000000000000000602082015250565b7f4552433732313a206f776e657220717565727920666f72206e6f6e657869737460008201527f656e7420746f6b656e0000000000000000000000000000000000000000000000602082015250565b7f4552433732313a206d696e7420746f20746865207a65726f2061646472657373600082015250565b7f4552433732313a20617070726f76656420717565727920666f72206e6f6e657860008201527f697374656e7420746f6b656e0000000000000000000000000000000000000000602082015250565b7f4552433732313a207472616e73666572206f6620746f6b656e2074686174206960008201527f73206e6f74206f776e0000000000000000000000000000000000000000000000602082015250565b7f4552433732314d657461646174613a2055524920717565727920666f72206e6f60008201527f6e6578697374656e7420746f6b656e0000000000000000000000000000000000602082015250565b7f596f75206e65656420746f206861766520656e6f756768204574686572000000600082015250565b7f4552433732313a20617070726f76616c20746f2063757272656e74206f776e6560008201527f7200000000000000000000000000000000000000000000000000000000000000602082015250565b7f54686520537461722073686f756c6420626520757020666f722073616c650000600082015250565b7f596f752063616e27742065786368616e6765207768617420796f7520646f6e2760008201527f74206f776e656400000000000000000000000000000000000000000000000000602082015250565b7f4552433732313a207472616e736665722063616c6c6572206973206e6f74206f60008201527f776e6572206e6f7220617070726f766564000000000000000000000000000000602082015250565b6133c681612bef565b81146133d157600080fd5b50565b6133dd81612c01565b81146133e857600080fd5b50565b6133f481612c0d565b81146133ff57600080fd5b50565b61340b81612c59565b811461341657600080fd5b5056fea2646970667358221220a5fb3e6ed422146823907674093abf9242a08e4f66e0cd77f07c1f8f0b09e1eb64736f6c63430008040033",
  "immutableReferences": {},
  "source": "// SPDX-License-Identifier: MIT\n\npragma solidity ^0.8.0;\n\nimport \"../client/node_modules/@openzeppelin/contracts/token/ERC721/ERC721.sol\";\n\ncontract StarNotary is ERC721 {\n    struct Star {\n        string name;\n    }\n\n    address public contarctAddress;\n\n    mapping(uint256 => Star) public tokenIdToStarInfo;\n    mapping(uint256 => uint256) public starsForSale;\n\n    constructor() ERC721(\"StarItem\", \"STR\") {\n        contarctAddress = address(this);\n    }\n\n    // Create Star using the Struct\n    function createStar(string memory _name, uint256 _tokenId) public {\n        // Passing the name and tokenId as a parameters\n        Star memory newStar = Star(_name); // Star is an struct so we are creating a new Star\n        tokenIdToStarInfo[_tokenId] = newStar; // Creating in memory the Star -> tokenId mapping\n        _mint(msg.sender, _tokenId); // _mint assign the the star with _tokenId to the sender address (ownership)\n    }\n\n    // Putting an Star for sale (Adding the star tokenid into the mapping starsForSale, first verify that the sender is the owner)\n    function putStarUpForSale(uint256 _tokenId, uint256 _price) public {\n        require(\n            ownerOf(_tokenId) == msg.sender,\n            \"You can't sale the Star you don't owned\"\n        );\n        starsForSale[_tokenId] = _price;\n        // address a = 0xc7ecDC1684563d773a10c10115b4699f33a49706;\n        // approve(contarctAddress, _tokenId);\n        // setApprovalForAll(contarctAddress, true);\n    }\n\n    // Function that allows you to convert an address into a payable address\n    function _make_payable(address x) internal pure returns (address payable) {\n        return payable(x);\n    }\n\n    function buyStar(uint256 _tokenId) public payable {\n        require(starsForSale[_tokenId] > 0, \"The Star should be up for sale\");\n        uint256 starCost = starsForSale[_tokenId];\n\n        address ownerAddress = ownerOf(_tokenId);\n        address payable ownerAddressPayable = _make_payable(ownerAddress); // We need to make this conversion to be able to use transfer() function to transfer ethers\n\n        address senderAddress = msg.sender;\n        address payable senderAddressPayable = _make_payable(senderAddress);\n\n        require(msg.value > starCost, \"You need to have enough Ether\");\n\n        _transfer(ownerAddress, senderAddress, _tokenId); // We can't use _addTokenTo or_removeTokenFrom functions, now we have to use _transferFrom\n\n        ownerAddressPayable.transfer(starCost);\n        if (msg.value > starCost) {\n            senderAddressPayable.transfer(msg.value - starCost);\n        }\n    }\n\n    function lookUptokenIdToStarInfo(uint256 _tokenId)\n        public\n        view\n        returns (string memory, address)\n    {\n        string memory starName = \"no star exist for this token\";\n        address starOwner;\n\n        if (_exists(_tokenId)) {\n            starName = tokenIdToStarInfo[_tokenId].name;\n            starOwner = ownerOf(_tokenId);\n        }\n        return (starName, starOwner);\n    }\n\n    function exchangeStars(uint256 _tokenId_user1, uint256 _tokenId_user2)\n        public\n    {\n        require(\n            _exists(_tokenId_user1) && _exists(_tokenId_user2),\n            \"At least one of the stars don't exist\"\n        );\n        require(\n            (ownerOf(_tokenId_user1) == msg.sender) ||\n                (ownerOf(_tokenId_user2) == msg.sender),\n            \"You can't exchange what you don't owned\"\n        );\n\n        address owner_user1 = ownerOf(_tokenId_user1);\n        address owner_user2 = ownerOf(_tokenId_user2);\n\n        _transfer(owner_user1, owner_user2, _tokenId_user1);\n        _transfer(owner_user2, owner_user1, _tokenId_user2);\n    }\n\n    function transferStars(address _to, uint256 _tokenId) public {\n        require(\n            ownerOf(_tokenId) == msg.sender,\n            \"You can't transfer the Star you don't owned\"\n        );\n        transferFrom(msg.sender, _to, _tokenId);\n    }\n}\n",
  "sourcePath": "C:/blockchain/eth/ch3project/contracts/StarNotary.sol",
  "compiler": {
    "name": "solc",
    "version": "0.8.4+commit.c7e474f2.Emscripten.clang"
  },
  "schemaVersion": "3.4.1",
  "updatedAt": "2021-06-04T15:14:51.749Z",
  "networkType": "ethereum",
  "devdoc": {
    "kind": "dev",
    "methods": {
      "approve(address,uint256)": {
        "details": "See {IERC721-approve}."
      },
      "balanceOf(address)": {
        "details": "See {IERC721-balanceOf}."
      },
      "getApproved(uint256)": {
        "details": "See {IERC721-getApproved}."
      },
      "isApprovedForAll(address,address)": {
        "details": "See {IERC721-isApprovedForAll}."
      },
      "name()": {
        "details": "See {IERC721Metadata-name}."
      },
      "ownerOf(uint256)": {
        "details": "See {IERC721-ownerOf}."
      },
      "safeTransferFrom(address,address,uint256)": {
        "details": "See {IERC721-safeTransferFrom}."
      },
      "safeTransferFrom(address,address,uint256,bytes)": {
        "details": "See {IERC721-safeTransferFrom}."
      },
      "setApprovalForAll(address,bool)": {
        "details": "See {IERC721-setApprovalForAll}."
      },
      "supportsInterface(bytes4)": {
        "details": "See {IERC165-supportsInterface}."
      },
      "symbol()": {
        "details": "See {IERC721Metadata-symbol}."
      },
      "tokenURI(uint256)": {
        "details": "See {IERC721Metadata-tokenURI}."
      },
      "transferFrom(address,address,uint256)": {
        "details": "See {IERC721-transferFrom}."
      }
    },
    "version": 1
  },
  "userdoc": {
    "kind": "user",
    "methods": {},
    "version": 1
  }
}